{
    "_format": "hh-sol-artifact-1",
    "contractName": "NounsDAOLogicV1",
    "sourceName": "contracts/governance/NounsDAOLogicV1.sol",
    "abi": [
        {
            "anonymous": false,
            "inputs": [
                {
                    "indexed": false,
                    "internalType": "address",
                    "name": "oldAdmin",
                    "type": "address"
                },
                {
                    "indexed": false,
                    "internalType": "address",
                    "name": "newAdmin",
                    "type": "address"
                }
            ],
            "name": "NewAdmin",
            "type": "event"
        },
        {
            "anonymous": false,
            "inputs": [
                {
                    "indexed": false,
                    "internalType": "address",
                    "name": "oldImplementation",
                    "type": "address"
                },
                {
                    "indexed": false,
                    "internalType": "address",
                    "name": "newImplementation",
                    "type": "address"
                }
            ],
            "name": "NewImplementation",
            "type": "event"
        },
        {
            "anonymous": false,
            "inputs": [
                {
                    "indexed": false,
                    "internalType": "address",
                    "name": "oldPendingAdmin",
                    "type": "address"
                },
                {
                    "indexed": false,
                    "internalType": "address",
                    "name": "newPendingAdmin",
                    "type": "address"
                }
            ],
            "name": "NewPendingAdmin",
            "type": "event"
        },
        {
            "anonymous": false,
            "inputs": [
                {
                    "indexed": false,
                    "internalType": "address",
                    "name": "oldVetoer",
                    "type": "address"
                },
                {
                    "indexed": false,
                    "internalType": "address",
                    "name": "newVetoer",
                    "type": "address"
                }
            ],
            "name": "NewVetoer",
            "type": "event"
        },
        {
            "anonymous": false,
            "inputs": [
                {
                    "indexed": false,
                    "internalType": "uint256",
                    "name": "id",
                    "type": "uint256"
                }
            ],
            "name": "ProposalCanceled",
            "type": "event"
        },
        {
            "anonymous": false,
            "inputs": [
                {
                    "indexed": false,
                    "internalType": "uint256",
                    "name": "id",
                    "type": "uint256"
                },
                {
                    "indexed": false,
                    "internalType": "address",
                    "name": "proposer",
                    "type": "address"
                },
                {
                    "indexed": false,
                    "internalType": "address[]",
                    "name": "targets",
                    "type": "address[]"
                },
                {
                    "indexed": false,
                    "internalType": "uint256[]",
                    "name": "values",
                    "type": "uint256[]"
                },
                {
                    "indexed": false,
                    "internalType": "string[]",
                    "name": "signatures",
                    "type": "string[]"
                },
                {
                    "indexed": false,
                    "internalType": "bytes[]",
                    "name": "calldatas",
                    "type": "bytes[]"
                },
                {
                    "indexed": false,
                    "internalType": "uint256",
                    "name": "startBlock",
                    "type": "uint256"
                },
                {
                    "indexed": false,
                    "internalType": "uint256",
                    "name": "endBlock",
                    "type": "uint256"
                },
                {
                    "indexed": false,
                    "internalType": "string",
                    "name": "description",
                    "type": "string"
                }
            ],
            "name": "ProposalCreated",
            "type": "event"
        },
        {
            "anonymous": false,
            "inputs": [
                {
                    "indexed": false,
                    "internalType": "uint256",
                    "name": "id",
                    "type": "uint256"
                },
                {
                    "indexed": false,
                    "internalType": "address",
                    "name": "proposer",
                    "type": "address"
                },
                {
                    "indexed": false,
                    "internalType": "address[]",
                    "name": "targets",
                    "type": "address[]"
                },
                {
                    "indexed": false,
                    "internalType": "uint256[]",
                    "name": "values",
                    "type": "uint256[]"
                },
                {
                    "indexed": false,
                    "internalType": "string[]",
                    "name": "signatures",
                    "type": "string[]"
                },
                {
                    "indexed": false,
                    "internalType": "bytes[]",
                    "name": "calldatas",
                    "type": "bytes[]"
                },
                {
                    "indexed": false,
                    "internalType": "uint256",
                    "name": "startBlock",
                    "type": "uint256"
                },
                {
                    "indexed": false,
                    "internalType": "uint256",
                    "name": "endBlock",
                    "type": "uint256"
                },
                {
                    "indexed": false,
                    "internalType": "uint256",
                    "name": "proposalThreshold",
                    "type": "uint256"
                },
                {
                    "indexed": false,
                    "internalType": "uint256",
                    "name": "quorumVotes",
                    "type": "uint256"
                },
                {
                    "indexed": false,
                    "internalType": "string",
                    "name": "description",
                    "type": "string"
                }
            ],
            "name": "ProposalCreatedWithRequirements",
            "type": "event"
        },
        {
            "anonymous": false,
            "inputs": [
                {
                    "indexed": false,
                    "internalType": "uint256",
                    "name": "id",
                    "type": "uint256"
                }
            ],
            "name": "ProposalExecuted",
            "type": "event"
        },
        {
            "anonymous": false,
            "inputs": [
                {
                    "indexed": false,
                    "internalType": "uint256",
                    "name": "id",
                    "type": "uint256"
                },
                {
                    "indexed": false,
                    "internalType": "uint256",
                    "name": "eta",
                    "type": "uint256"
                }
            ],
            "name": "ProposalQueued",
            "type": "event"
        },
        {
            "anonymous": false,
            "inputs": [
                {
                    "indexed": false,
                    "internalType": "uint256",
                    "name": "oldProposalThresholdBPS",
                    "type": "uint256"
                },
                {
                    "indexed": false,
                    "internalType": "uint256",
                    "name": "newProposalThresholdBPS",
                    "type": "uint256"
                }
            ],
            "name": "ProposalThresholdBPSSet",
            "type": "event"
        },
        {
            "anonymous": false,
            "inputs": [
                {
                    "indexed": false,
                    "internalType": "uint256",
                    "name": "id",
                    "type": "uint256"
                }
            ],
            "name": "ProposalVetoed",
            "type": "event"
        },
        {
            "anonymous": false,
            "inputs": [
                {
                    "indexed": false,
                    "internalType": "uint256",
                    "name": "oldQuorumVotesBPS",
                    "type": "uint256"
                },
                {
                    "indexed": false,
                    "internalType": "uint256",
                    "name": "newQuorumVotesBPS",
                    "type": "uint256"
                }
            ],
            "name": "QuorumVotesBPSSet",
            "type": "event"
        },
        {
            "anonymous": false,
            "inputs": [
                {
                    "indexed": true,
                    "internalType": "address",
                    "name": "voter",
                    "type": "address"
                },
                {
                    "indexed": false,
                    "internalType": "uint256",
                    "name": "proposalId",
                    "type": "uint256"
                },
                {
                    "indexed": false,
                    "internalType": "uint8",
                    "name": "support",
                    "type": "uint8"
                },
                {
                    "indexed": false,
                    "internalType": "uint256",
                    "name": "votes",
                    "type": "uint256"
                },
                {
                    "indexed": false,
                    "internalType": "string",
                    "name": "reason",
                    "type": "string"
                }
            ],
            "name": "VoteCast",
            "type": "event"
        },
        {
            "anonymous": false,
            "inputs": [
                {
                    "indexed": false,
                    "internalType": "uint256",
                    "name": "oldVotingDelay",
                    "type": "uint256"
                },
                {
                    "indexed": false,
                    "internalType": "uint256",
                    "name": "newVotingDelay",
                    "type": "uint256"
                }
            ],
            "name": "VotingDelaySet",
            "type": "event"
        },
        {
            "anonymous": false,
            "inputs": [
                {
                    "indexed": false,
                    "internalType": "uint256",
                    "name": "oldVotingPeriod",
                    "type": "uint256"
                },
                {
                    "indexed": false,
                    "internalType": "uint256",
                    "name": "newVotingPeriod",
                    "type": "uint256"
                }
            ],
            "name": "VotingPeriodSet",
            "type": "event"
        },
        {
            "inputs": [],
            "name": "BALLOT_TYPEHASH",
            "outputs": [
                {
                    "internalType": "bytes32",
                    "name": "",
                    "type": "bytes32"
                }
            ],
            "stateMutability": "view",
            "type": "function"
        },
        {
            "inputs": [],
            "name": "DOMAIN_TYPEHASH",
            "outputs": [
                {
                    "internalType": "bytes32",
                    "name": "",
                    "type": "bytes32"
                }
            ],
            "stateMutability": "view",
            "type": "function"
        },
        {
            "inputs": [],
            "name": "MAX_PROPOSAL_THRESHOLD_BPS",
            "outputs": [
                {
                    "internalType": "uint256",
                    "name": "",
                    "type": "uint256"
                }
            ],
            "stateMutability": "view",
            "type": "function"
        },
        {
            "inputs": [],
            "name": "MAX_QUORUM_VOTES_BPS",
            "outputs": [
                {
                    "internalType": "uint256",
                    "name": "",
                    "type": "uint256"
                }
            ],
            "stateMutability": "view",
            "type": "function"
        },
        {
            "inputs": [],
            "name": "MAX_VOTING_DELAY",
            "outputs": [
                {
                    "internalType": "uint256",
                    "name": "",
                    "type": "uint256"
                }
            ],
            "stateMutability": "view",
            "type": "function"
        },
        {
            "inputs": [],
            "name": "MAX_VOTING_PERIOD",
            "outputs": [
                {
                    "internalType": "uint256",
                    "name": "",
                    "type": "uint256"
                }
            ],
            "stateMutability": "view",
            "type": "function"
        },
        {
            "inputs": [],
            "name": "MIN_PROPOSAL_THRESHOLD_BPS",
            "outputs": [
                {
                    "internalType": "uint256",
                    "name": "",
                    "type": "uint256"
                }
            ],
            "stateMutability": "view",
            "type": "function"
        },
        {
            "inputs": [],
            "name": "MIN_QUORUM_VOTES_BPS",
            "outputs": [
                {
                    "internalType": "uint256",
                    "name": "",
                    "type": "uint256"
                }
            ],
            "stateMutability": "view",
            "type": "function"
        },
        {
            "inputs": [],
            "name": "MIN_VOTING_DELAY",
            "outputs": [
                {
                    "internalType": "uint256",
                    "name": "",
                    "type": "uint256"
                }
            ],
            "stateMutability": "view",
            "type": "function"
        },
        {
            "inputs": [],
            "name": "MIN_VOTING_PERIOD",
            "outputs": [
                {
                    "internalType": "uint256",
                    "name": "",
                    "type": "uint256"
                }
            ],
            "stateMutability": "view",
            "type": "function"
        },
        {
            "inputs": [],
            "name": "_acceptAdmin",
            "outputs": [],
            "stateMutability": "nonpayable",
            "type": "function"
        },
        {
            "inputs": [],
            "name": "_burnVetoPower",
            "outputs": [],
            "stateMutability": "nonpayable",
            "type": "function"
        },
        {
            "inputs": [
                {
                    "internalType": "address",
                    "name": "newPendingAdmin",
                    "type": "address"
                }
            ],
            "name": "_setPendingAdmin",
            "outputs": [],
            "stateMutability": "nonpayable",
            "type": "function"
        },
        {
            "inputs": [
                {
                    "internalType": "uint256",
                    "name": "newProposalThresholdBPS",
                    "type": "uint256"
                }
            ],
            "name": "_setProposalThresholdBPS",
            "outputs": [],
            "stateMutability": "nonpayable",
            "type": "function"
        },
        {
            "inputs": [
                {
                    "internalType": "uint256",
                    "name": "newQuorumVotesBPS",
                    "type": "uint256"
                }
            ],
            "name": "_setQuorumVotesBPS",
            "outputs": [],
            "stateMutability": "nonpayable",
            "type": "function"
        },
        {
            "inputs": [
                {
                    "internalType": "address",
                    "name": "newVetoer",
                    "type": "address"
                }
            ],
            "name": "_setVetoer",
            "outputs": [],
            "stateMutability": "nonpayable",
            "type": "function"
        },
        {
            "inputs": [
                {
                    "internalType": "uint256",
                    "name": "newVotingDelay",
                    "type": "uint256"
                }
            ],
            "name": "_setVotingDelay",
            "outputs": [],
            "stateMutability": "nonpayable",
            "type": "function"
        },
        {
            "inputs": [
                {
                    "internalType": "uint256",
                    "name": "newVotingPeriod",
                    "type": "uint256"
                }
            ],
            "name": "_setVotingPeriod",
            "outputs": [],
            "stateMutability": "nonpayable",
            "type": "function"
        },
        {
            "inputs": [],
            "name": "admin",
            "outputs": [
                {
                    "internalType": "address",
                    "name": "",
                    "type": "address"
                }
            ],
            "stateMutability": "view",
            "type": "function"
        },
        {
            "inputs": [
                {
                    "internalType": "uint256",
                    "name": "proposalId",
                    "type": "uint256"
                }
            ],
            "name": "cancel",
            "outputs": [],
            "stateMutability": "nonpayable",
            "type": "function"
        },
        {
            "inputs": [
                {
                    "internalType": "uint256",
                    "name": "proposalId",
                    "type": "uint256"
                },
                {
                    "internalType": "uint8",
                    "name": "support",
                    "type": "uint8"
                }
            ],
            "name": "castVote",
            "outputs": [],
            "stateMutability": "nonpayable",
            "type": "function"
        },
        {
            "inputs": [
                {
                    "internalType": "uint256",
                    "name": "proposalId",
                    "type": "uint256"
                },
                {
                    "internalType": "uint8",
                    "name": "support",
                    "type": "uint8"
                },
                {
                    "internalType": "uint8",
                    "name": "v",
                    "type": "uint8"
                },
                {
                    "internalType": "bytes32",
                    "name": "r",
                    "type": "bytes32"
                },
                {
                    "internalType": "bytes32",
                    "name": "s",
                    "type": "bytes32"
                }
            ],
            "name": "castVoteBySig",
            "outputs": [],
            "stateMutability": "nonpayable",
            "type": "function"
        },
        {
            "inputs": [
                {
                    "internalType": "uint256",
                    "name": "proposalId",
                    "type": "uint256"
                },
                {
                    "internalType": "uint8",
                    "name": "support",
                    "type": "uint8"
                },
                {
                    "internalType": "string",
                    "name": "reason",
                    "type": "string"
                }
            ],
            "name": "castVoteWithReason",
            "outputs": [],
            "stateMutability": "nonpayable",
            "type": "function"
        },
        {
            "inputs": [
                {
                    "internalType": "uint256",
                    "name": "proposalId",
                    "type": "uint256"
                }
            ],
            "name": "execute",
            "outputs": [],
            "stateMutability": "nonpayable",
            "type": "function"
        },
        {
            "inputs": [
                {
                    "internalType": "uint256",
                    "name": "proposalId",
                    "type": "uint256"
                }
            ],
            "name": "getActions",
            "outputs": [
                {
                    "internalType": "address[]",
                    "name": "targets",
                    "type": "address[]"
                },
                {
                    "internalType": "uint256[]",
                    "name": "values",
                    "type": "uint256[]"
                },
                {
                    "internalType": "string[]",
                    "name": "signatures",
                    "type": "string[]"
                },
                {
                    "internalType": "bytes[]",
                    "name": "calldatas",
                    "type": "bytes[]"
                }
            ],
            "stateMutability": "view",
            "type": "function"
        },
        {
            "inputs": [
                {
                    "internalType": "uint256",
                    "name": "proposalId",
                    "type": "uint256"
                },
                {
                    "internalType": "address",
                    "name": "voter",
                    "type": "address"
                }
            ],
            "name": "getReceipt",
            "outputs": [
                {
                    "components": [
                        {
                            "internalType": "bool",
                            "name": "hasVoted",
                            "type": "bool"
                        },
                        {
                            "internalType": "uint8",
                            "name": "support",
                            "type": "uint8"
                        },
                        {
                            "internalType": "uint96",
                            "name": "votes",
                            "type": "uint96"
                        }
                    ],
                    "internalType": "struct NounsDAOStorageV1.Receipt",
                    "name": "",
                    "type": "tuple"
                }
            ],
            "stateMutability": "view",
            "type": "function"
        },
        {
            "inputs": [],
            "name": "implementation",
            "outputs": [
                {
                    "internalType": "address",
                    "name": "",
                    "type": "address"
                }
            ],
            "stateMutability": "view",
            "type": "function"
        },
        {
            "inputs": [
                {
                    "internalType": "address",
                    "name": "timelock_",
                    "type": "address"
                },
                {
                    "internalType": "address",
                    "name": "nouns_",
                    "type": "address"
                },
                {
                    "internalType": "address",
                    "name": "vetoer_",
                    "type": "address"
                },
                {
                    "internalType": "uint256",
                    "name": "votingPeriod_",
                    "type": "uint256"
                },
                {
                    "internalType": "uint256",
                    "name": "votingDelay_",
                    "type": "uint256"
                },
                {
                    "internalType": "uint256",
                    "name": "proposalThresholdBPS_",
                    "type": "uint256"
                },
                {
                    "internalType": "uint256",
                    "name": "quorumVotesBPS_",
                    "type": "uint256"
                }
            ],
            "name": "initialize",
            "outputs": [],
            "stateMutability": "nonpayable",
            "type": "function"
        },
        {
            "inputs": [
                {
                    "internalType": "address",
                    "name": "",
                    "type": "address"
                }
            ],
            "name": "latestProposalIds",
            "outputs": [
                {
                    "internalType": "uint256",
                    "name": "",
                    "type": "uint256"
                }
            ],
            "stateMutability": "view",
            "type": "function"
        },
        {
            "inputs": [],
            "name": "name",
            "outputs": [
                {
                    "internalType": "string",
                    "name": "",
                    "type": "string"
                }
            ],
            "stateMutability": "view",
            "type": "function"
        },
        {
            "inputs": [],
            "name": "nouns",
            "outputs": [
                {
                    "internalType": "contract NounsTokenLike",
                    "name": "",
                    "type": "address"
                }
            ],
            "stateMutability": "view",
            "type": "function"
        },
        {
            "inputs": [],
            "name": "pendingAdmin",
            "outputs": [
                {
                    "internalType": "address",
                    "name": "",
                    "type": "address"
                }
            ],
            "stateMutability": "view",
            "type": "function"
        },
        {
            "inputs": [],
            "name": "proposalCount",
            "outputs": [
                {
                    "internalType": "uint256",
                    "name": "",
                    "type": "uint256"
                }
            ],
            "stateMutability": "view",
            "type": "function"
        },
        {
            "inputs": [],
            "name": "proposalMaxOperations",
            "outputs": [
                {
                    "internalType": "uint256",
                    "name": "",
                    "type": "uint256"
                }
            ],
            "stateMutability": "view",
            "type": "function"
        },
        {
            "inputs": [],
            "name": "proposalThreshold",
            "outputs": [
                {
                    "internalType": "uint256",
                    "name": "",
                    "type": "uint256"
                }
            ],
            "stateMutability": "view",
            "type": "function"
        },
        {
            "inputs": [],
            "name": "proposalThresholdBPS",
            "outputs": [
                {
                    "internalType": "uint256",
                    "name": "",
                    "type": "uint256"
                }
            ],
            "stateMutability": "view",
            "type": "function"
        },
        {
            "inputs": [
                {
                    "internalType": "uint256",
                    "name": "",
                    "type": "uint256"
                }
            ],
            "name": "proposals",
            "outputs": [
                {
                    "internalType": "uint256",
                    "name": "id",
                    "type": "uint256"
                },
                {
                    "internalType": "address",
                    "name": "proposer",
                    "type": "address"
                },
                {
                    "internalType": "uint256",
                    "name": "proposalThreshold",
                    "type": "uint256"
                },
                {
                    "internalType": "uint256",
                    "name": "quorumVotes",
                    "type": "uint256"
                },
                {
                    "internalType": "uint256",
                    "name": "eta",
                    "type": "uint256"
                },
                {
                    "internalType": "uint256",
                    "name": "startBlock",
                    "type": "uint256"
                },
                {
                    "internalType": "uint256",
                    "name": "endBlock",
                    "type": "uint256"
                },
                {
                    "internalType": "uint256",
                    "name": "forVotes",
                    "type": "uint256"
                },
                {
                    "internalType": "uint256",
                    "name": "againstVotes",
                    "type": "uint256"
                },
                {
                    "internalType": "uint256",
                    "name": "abstainVotes",
                    "type": "uint256"
                },
                {
                    "internalType": "bool",
                    "name": "canceled",
                    "type": "bool"
                },
                {
                    "internalType": "bool",
                    "name": "vetoed",
                    "type": "bool"
                },
                {
                    "internalType": "bool",
                    "name": "executed",
                    "type": "bool"
                }
            ],
            "stateMutability": "view",
            "type": "function"
        },
        {
            "inputs": [
                {
                    "internalType": "address[]",
                    "name": "targets",
                    "type": "address[]"
                },
                {
                    "internalType": "uint256[]",
                    "name": "values",
                    "type": "uint256[]"
                },
                {
                    "internalType": "string[]",
                    "name": "signatures",
                    "type": "string[]"
                },
                {
                    "internalType": "bytes[]",
                    "name": "calldatas",
                    "type": "bytes[]"
                },
                {
                    "internalType": "string",
                    "name": "description",
                    "type": "string"
                }
            ],
            "name": "propose",
            "outputs": [
                {
                    "internalType": "uint256",
                    "name": "",
                    "type": "uint256"
                }
            ],
            "stateMutability": "nonpayable",
            "type": "function"
        },
        {
            "inputs": [
                {
                    "internalType": "uint256",
                    "name": "proposalId",
                    "type": "uint256"
                }
            ],
            "name": "queue",
            "outputs": [],
            "stateMutability": "nonpayable",
            "type": "function"
        },
        {
            "inputs": [],
            "name": "quorumVotes",
            "outputs": [
                {
                    "internalType": "uint256",
                    "name": "",
                    "type": "uint256"
                }
            ],
            "stateMutability": "view",
            "type": "function"
        },
        {
            "inputs": [],
            "name": "quorumVotesBPS",
            "outputs": [
                {
                    "internalType": "uint256",
                    "name": "",
                    "type": "uint256"
                }
            ],
            "stateMutability": "view",
            "type": "function"
        },
        {
            "inputs": [
                {
                    "internalType": "uint256",
                    "name": "proposalId",
                    "type": "uint256"
                }
            ],
            "name": "state",
            "outputs": [
                {
                    "internalType": "enum NounsDAOStorageV1.ProposalState",
                    "name": "",
                    "type": "uint8"
                }
            ],
            "stateMutability": "view",
            "type": "function"
        },
        {
            "inputs": [],
            "name": "timelock",
            "outputs": [
                {
                    "internalType": "contract INounsDAOExecutor",
                    "name": "",
                    "type": "address"
                }
            ],
            "stateMutability": "view",
            "type": "function"
        },
        {
            "inputs": [
                {
                    "internalType": "uint256",
                    "name": "proposalId",
                    "type": "uint256"
                }
            ],
            "name": "veto",
            "outputs": [],
            "stateMutability": "nonpayable",
            "type": "function"
        },
        {
            "inputs": [],
            "name": "vetoer",
            "outputs": [
                {
                    "internalType": "address",
                    "name": "",
                    "type": "address"
                }
            ],
            "stateMutability": "view",
            "type": "function"
        },
        {
            "inputs": [],
            "name": "votingDelay",
            "outputs": [
                {
                    "internalType": "uint256",
                    "name": "",
                    "type": "uint256"
                }
            ],
            "stateMutability": "view",
            "type": "function"
        },
        {
            "inputs": [],
            "name": "votingPeriod",
            "outputs": [
                {
                    "internalType": "uint256",
                    "name": "",
                    "type": "uint256"
                }
            ],
            "stateMutability": "view",
            "type": "function"
        }
    ],
    "bytecode": "0x608060405234801561001057600080fd5b50614732806100206000396000f3fe608060405234801561001057600080fd5b50600436106103155760003560e01c80636f3eff28116101a7578063c82fbd08116100ee578063deaaa7cc11610097578063e9c714f211610071578063e9c714f214610773578063f851a4401461077b578063fe0d94c11461078e57600080fd5b8063deaaa7cc14610704578063e23a9a521461072b578063e48083fe146106a757600080fd5b8063da35c664116100c8578063da35c664146106d5578063da95691a146106de578063ddf0b009146106f157600080fd5b8063c82fbd08146106a7578063d33219b4146106af578063d8bff440146106c257600080fd5b8063a64e024a11610150578063b71d1a0c1161012a578063b71d1a0c14610683578063bb67758214610696578063bf7a29631461069f57600080fd5b8063a64e024a14610668578063b112626314610672578063b58131b01461067b57600080fd5b806383cce0e11161018157806383cce0e11461063957806396300b7d1461064257806397d048e51461065557600080fd5b80636f3eff281461060b5780637b3c71d31461061e5780637bdbe4d01461063157600080fd5b80632230e1551161026b5780633932abb11161021457806340e58ee5116101ee57806340e58ee5146105d257806356781388146105e55780635c60da1b146105f857600080fd5b80633932abb1146105965780633bccf4fd1461059f5780633e4f49e6146105b257600080fd5b80632b4656c8116102455780632b4656c81461054d5780632de45f1814610560578063328dd9821461057357600080fd5b80632230e1551461051257806324bc1a641461051a578063267822471461052257600080fd5b806317977c61116102cd5780631e7b5d3a116102a75780631e7b5d3a146104d957806320606b70146104e2578063215809ca1461050957600080fd5b806317977c61146104935780631d28dec7146104b35780631dfb1b5a146104c657600080fd5b806306fdde03116102fe57806306fdde031461042c5780630ea2d98c1461047557806314a67ea41461048a57600080fd5b8063013cf08b1461031a57806302a251a314610415575b600080fd5b6103a061032836600461392d565b600b602081905260009182526040909120805460018201546002830154600384015460048501546009860154600a87015497870154600c880154600d890154600e9099015497996001600160a01b039097169895979496939592949192909160ff80821691610100810482169162010000909104168d565b604080519d8e526001600160a01b03909c1660208e01529a8c019990995260608b019790975260808a019590955260a089019390935260c088019190915260e08701526101008601526101208501521515610140840152151561016083015215156101808201526101a0015b60405180910390f35b61041e60055481565b60405190815260200161040c565b6104686040518060400160405280600981526020017f4e6f756e732044414f000000000000000000000000000000000000000000000081525081565b60405161040c9190613996565b61048861048336600461392d565b6107a1565b005b61041e60065481565b61041e6104a13660046139c5565b600c6020526000908152604090205481565b6104886104c136600461392d565b6108f3565b6104886104d436600461392d565b610be2565b61041e6103e881565b61041e7f8cad95687ba82c2ce50e74f7b754645e5117c3a5bec8151c0726d5857980a86681565b61041e61168081565b61041e60c881565b61041e610d25565b600154610535906001600160a01b031681565b6040516001600160a01b03909116815260200161040c565b61048861055b3660046139e0565b610dae565b600a54610535906001600160a01b031681565b61058661058136600461392d565b6112ef565b60405161040c9493929190613b11565b61041e60045481565b6104886105ad366004613b7a565b611580565b6105c56105c036600461392d565b611831565b60405161040c9190613bf7565b6104886105e036600461392d565b611a12565b6104886105f3366004613c38565b611d73565b600254610535906001600160a01b031681565b61048861061936600461392d565b611de3565b61048861062c366004613c64565b611f26565b61041e600a81565b61041e60075481565b6104886106503660046139c5565b611f76565b61048861066336600461392d565b612077565b61041e62013b0081565b61041e619d8081565b61041e6121ba565b6104886106913660046139c5565b612215565b61041e6107d081565b610488612307565b61041e600181565b600954610535906001600160a01b031681565b600354610535906001600160a01b031681565b61041e60085481565b61041e6106ec366004613fd2565b612393565b6104886106ff36600461392d565b612aa8565b61041e7f150214d74d59b7d1e90c73fc22ef3d991dd0a76b046543d4d80ab92d2a50328f81565b61073e6107393660046140a4565b612de5565b6040805182511515815260208084015160ff1690820152918101516bffffffffffffffffffffffff169082015260600161040c565b610488612e62565b600054610535906001600160a01b031681565b61048861079c36600461392d565b612fb3565b6000546001600160a01b031633146108265760405162461bcd60e51b815260206004820152602660248201527f4e6f756e7344414f3a3a5f736574566f74696e67506572696f643a2061646d6960448201527f6e206f6e6c79000000000000000000000000000000000000000000000000000060648201526084015b60405180910390fd5b611680811015801561083b575062013b008111155b6108ad5760405162461bcd60e51b815260206004820152603160248201527f4e6f756e7344414f3a3a5f736574566f74696e67506572696f643a20696e766160448201527f6c696420766f74696e6720706572696f64000000000000000000000000000000606482015260840161081d565b600580549082905560408051828152602081018490527f7e3f7f0708a84de9203036abaa450dccc85ad5ff52f78c170f3edb55cf5e882891015b60405180910390a15050565b6003546001600160a01b03166109715760405162461bcd60e51b815260206004820152602160248201527f4e6f756e7344414f3a3a7665746f3a207665746f20706f776572206275726e6560448201527f6400000000000000000000000000000000000000000000000000000000000000606482015260840161081d565b6003546001600160a01b031633146109cb5760405162461bcd60e51b815260206004820152601b60248201527f4e6f756e7344414f3a3a7665746f3a206f6e6c79207665746f65720000000000604482015260640161081d565b60076109d682611831565b60088111156109e7576109e7613bc8565b03610a5a5760405162461bcd60e51b815260206004820152602d60248201527f4e6f756e7344414f3a3a7665746f3a2063616e6e6f74207665746f206578656360448201527f757465642070726f706f73616c00000000000000000000000000000000000000606482015260840161081d565b6000818152600b60205260408120600e810180547fffffffffffffffffffffffffffffffffffffffffffffffffffffffffffff00ff16610100179055905b6005820154811015610bb1576009546005830180546001600160a01b039092169163591fcdfe919084908110610ad057610ad06140c7565b6000918252602090912001546006850180546001600160a01b039092169185908110610afe57610afe6140c7565b9060005260206000200154856007018581548110610b1e57610b1e6140c7565b90600052602060002001866008018681548110610b3d57610b3d6140c7565b9060005260206000200187600401546040518663ffffffff1660e01b8152600401610b6c9594939291906141de565b600060405180830381600087803b158015610b8657600080fd5b505af1158015610b9a573d6000803e3d6000fd5b505050508080610ba99061425a565b915050610a98565b506040518281527fde0cea2a3a0097cc3d981d40c375407760e85bc9c5e69aea449ac3885f8615c6906020016108e7565b6000546001600160a01b03163314610c625760405162461bcd60e51b815260206004820152602560248201527f4e6f756e7344414f3a3a5f736574566f74696e6744656c61793a2061646d696e60448201527f206f6e6c79000000000000000000000000000000000000000000000000000000606482015260840161081d565b60018110158015610c755750619d808111155b610ce75760405162461bcd60e51b815260206004820152602f60248201527f4e6f756e7344414f3a3a5f736574566f74696e6744656c61793a20696e76616c60448201527f696420766f74696e672064656c61790000000000000000000000000000000000606482015260840161081d565b600480549082905560408051828152602081018490527fc565b045403dc03c2eea82b81a0465edad9e2e7fc4d97e11421c209da93d7a9391016108e7565b6000610da9600754600a60009054906101000a90046001600160a01b03166001600160a01b03166318160ddd6040518163ffffffff1660e01b8152600401602060405180830381865afa158015610d80573d6000803e3d6000fd5b505050506040513d601f19601f82011682018060405250810190610da49190614292565b6131e2565b905090565b6009546001600160a01b031615610e2d5760405162461bcd60e51b815260206004820152602e60248201527f4e6f756e7344414f3a3a696e697469616c697a653a2063616e206f6e6c79206960448201527f6e697469616c697a65206f6e6365000000000000000000000000000000000000606482015260840161081d565b6000546001600160a01b03163314610e875760405162461bcd60e51b815260206004820181905260248201527f4e6f756e7344414f3a3a696e697469616c697a653a2061646d696e206f6e6c79604482015260640161081d565b6001600160a01b038716610f035760405162461bcd60e51b815260206004820152602e60248201527f4e6f756e7344414f3a3a696e697469616c697a653a20696e76616c696420746960448201527f6d656c6f636b2061646472657373000000000000000000000000000000000000606482015260840161081d565b6001600160a01b038616610f7f5760405162461bcd60e51b815260206004820152602b60248201527f4e6f756e7344414f3a3a696e697469616c697a653a20696e76616c6964206e6f60448201527f756e732061646472657373000000000000000000000000000000000000000000606482015260840161081d565b6116808410158015610f94575062013b008411155b6110065760405162461bcd60e51b815260206004820152602b60248201527f4e6f756e7344414f3a3a696e697469616c697a653a20696e76616c696420766f60448201527f74696e6720706572696f64000000000000000000000000000000000000000000606482015260840161081d565b600183101580156110195750619d808311155b61108b5760405162461bcd60e51b815260206004820152602a60248201527f4e6f756e7344414f3a3a696e697469616c697a653a20696e76616c696420766f60448201527f74696e672064656c617900000000000000000000000000000000000000000000606482015260840161081d565b6001821015801561109e57506103e88211155b6111105760405162461bcd60e51b815260206004820152603060248201527f4e6f756e7344414f3a3a696e697469616c697a653a20696e76616c696420707260448201527f6f706f73616c207468726573686f6c6400000000000000000000000000000000606482015260840161081d565b60c8811015801561112357506107d08111155b6111955760405162461bcd60e51b815260206004820152603060248201527f4e6f756e7344414f3a3a696e697469616c697a653a20696e76616c696420707260448201527f6f706f73616c207468726573686f6c6400000000000000000000000000000000606482015260840161081d565b60055460408051918252602082018690527f7e3f7f0708a84de9203036abaa450dccc85ad5ff52f78c170f3edb55cf5e8828910160405180910390a160045460408051918252602082018590527fc565b045403dc03c2eea82b81a0465edad9e2e7fc4d97e11421c209da93d7a93910160405180910390a160065460408051918252602082018490527ffc216faa269bf440fb06aa490693f409461bde9cdcb949c7b9f2cb79589e7a58910160405180910390a160075460408051918252602082018390527fd73ab1b53ca7a080713bcecd1a0acb2066a6a6c3d2fd6d78b67ae5005e652d9b910160405180910390a1600980547fffffffffffffffffffffffff00000000000000000000000000000000000000009081166001600160a01b03998a1617909155600a8054821697891697909717909655600380549096169490961693909317909355600555600491909155600655600755565b6060806060806000600b60008781526020019081526020016000209050806005018160060182600701836008018380548060200260200160405190810160405280929190818152602001828054801561137157602002820191906000526020600020905b81546001600160a01b03168152600190910190602001808311611353575b50505050509350828054806020026020016040519081016040528092919081815260200182805480156113c357602002820191906000526020600020905b8154815260200190600101908083116113af575b5050505050925081805480602002602001604051908101604052809291908181526020016000905b8282101561149757838290600052602060002001805461140a906140f6565b80601f0160208091040260200160405190810160405280929190818152602001828054611436906140f6565b80156114835780601f1061145857610100808354040283529160200191611483565b820191906000526020600020905b81548152906001019060200180831161146657829003601f168201915b5050505050815260200190600101906113eb565b50505050915080805480602002602001604051908101604052809291908181526020016000905b8282101561156a5783829060005260206000200180546114dd906140f6565b80601f0160208091040260200160405190810160405280929190818152602001828054611509906140f6565b80156115565780601f1061152b57610100808354040283529160200191611556565b820191906000526020600020905b81548152906001019060200180831161153957829003601f168201915b5050505050815260200190600101906114be565b5050505090509450945094509450509193509193565b604080518082018252600981527f4e6f756e732044414f000000000000000000000000000000000000000000000060209182015281517f8cad95687ba82c2ce50e74f7b754645e5117c3a5bec8151c0726d5857980a866818301527fe1dd93b3612547b4bb7c3d429f3df8508d84f5a4f63b5e2e44340b94698e6b3b81840152466060820152306080808301919091528351808303909101815260a0820184528051908301207f150214d74d59b7d1e90c73fc22ef3d991dd0a76b046543d4d80ab92d2a50328f60c083015260e0820189905260ff881661010080840191909152845180840390910181526101208301909452835193909201929092207f19010000000000000000000000000000000000000000000000000000000000006101408401526101428301829052610162830181905290916000906101820160408051601f198184030181528282528051602091820120600080855291840180845281905260ff8a169284019290925260608301889052608083018790529092509060019060a0016020604051602081039080840390855afa158015611728573d6000803e3d6000fd5b5050604051601f1901519150506001600160a01b0381166117b15760405162461bcd60e51b815260206004820152602a60248201527f4e6f756e7344414f3a3a63617374566f746542795369673a20696e76616c696460448201527f207369676e617475726500000000000000000000000000000000000000000000606482015260840161081d565b806001600160a01b03167fb8e138887d0aa13bab447e82de9d5c1777041ecd21ca36ba824ff1e6c07ddda48a8a6117e9858e8e613202565b6040805193845260ff90921660208401526bffffffffffffffffffffffff169082015260806060820181905260009082015260a00160405180910390a2505050505050505050565b60008160085410156118aa5760405162461bcd60e51b8152602060048201526024808201527f4e6f756e7344414f3a3a73746174653a20696e76616c69642070726f706f736160448201527f6c20696400000000000000000000000000000000000000000000000000000000606482015260840161081d565b6000828152600b60205260409020600e810154610100900460ff16156118d35750600892915050565b600e81015460ff16156118e95750600292915050565b806009015443116118fd5750600092915050565b80600a015443116119115750600192915050565b80600c015481600b015411158061192f5750806003015481600b0154105b1561193d5750600392915050565b80600401546000036119525750600492915050565b600e81015462010000900460ff161561196e5750600792915050565b600960009054906101000a90046001600160a01b03166001600160a01b031663c1a287e26040518163ffffffff1660e01b8152600401602060405180830381865afa1580156119c1573d6000803e3d6000fd5b505050506040513d601f19601f820116820180604052508101906119e59190614292565b81600401546119f491906142ab565b4210611a035750600692915050565b50600592915050565b50919050565b6007611a1d82611831565b6008811115611a2e57611a2e613bc8565b03611aa15760405162461bcd60e51b815260206004820152603160248201527f4e6f756e7344414f3a3a63616e63656c3a2063616e6e6f742063616e63656c2060448201527f65786563757465642070726f706f73616c000000000000000000000000000000606482015260840161081d565b6000818152600b6020526040902060018101546001600160a01b0316331480611b8757506002810154600a546001808401546001600160a01b039283169263782d6fe192911690611af290436142be565b6040517fffffffff0000000000000000000000000000000000000000000000000000000060e085901b1681526001600160a01b0390921660048301526024820152604401602060405180830381865afa158015611b53573d6000803e3d6000fd5b505050506040513d601f19601f82011682018060405250810190611b7791906142d1565b6bffffffffffffffffffffffff16105b611bf95760405162461bcd60e51b815260206004820152602a60248201527f4e6f756e7344414f3a3a63616e63656c3a2070726f706f7365722061626f766560448201527f207468726573686f6c6400000000000000000000000000000000000000000000606482015260840161081d565b600e810180547fffffffffffffffffffffffffffffffffffffffffffffffffffffffffffffff0016600117905560005b6005820154811015611d42576009546005830180546001600160a01b039092169163591fcdfe919084908110611c6157611c616140c7565b6000918252602090912001546006850180546001600160a01b039092169185908110611c8f57611c8f6140c7565b9060005260206000200154856007018581548110611caf57611caf6140c7565b90600052602060002001866008018681548110611cce57611cce6140c7565b9060005260206000200187600401546040518663ffffffff1660e01b8152600401611cfd9594939291906141de565b600060405180830381600087803b158015611d1757600080fd5b505af1158015611d2b573d6000803e3d6000fd5b505050508080611d3a9061425a565b915050611c29565b506040518281527f789cf55be980739dad1d0699b93b58e806b51c9d96619bfa8fe0a28abaa7b30c906020016108e7565b337fb8e138887d0aa13bab447e82de9d5c1777041ecd21ca36ba824ff1e6c07ddda48383611da2848383613202565b6040805193845260ff90921660208401526bffffffffffffffffffffffff169082015260806060820181905260009082015260a00160405180910390a25050565b6000546001600160a01b03163314611e635760405162461bcd60e51b815260206004820152602860248201527f4e6f756e7344414f3a3a5f73657451756f72756d566f7465734250533a20616460448201527f6d696e206f6e6c79000000000000000000000000000000000000000000000000606482015260840161081d565b60c88110158015611e7657506107d08111155b611ee85760405162461bcd60e51b815260206004820152603b60248201527f4e6f756e7344414f3a3a5f73657450726f706f73616c5468726573686f6c643a60448201527f20696e76616c69642070726f706f73616c207468726573686f6c640000000000606482015260840161081d565b600780549082905560408051828152602081018490527fd73ab1b53ca7a080713bcecd1a0acb2066a6a6c3d2fd6d78b67ae5005e652d9b91016108e7565b337fb8e138887d0aa13bab447e82de9d5c1777041ecd21ca36ba824ff1e6c07ddda48585611f55848383613202565b8686604051611f689594939291906142ff565b60405180910390a250505050565b6003546001600160a01b03163314611ff65760405162461bcd60e51b815260206004820152602160248201527f4e6f756e7344414f3a3a5f7365745665746f65723a207665746f6572206f6e6c60448201527f7900000000000000000000000000000000000000000000000000000000000000606482015260840161081d565b600354604080516001600160a01b03928316815291831660208301527fc5644f3588a066b15dcf6b636b74aadca57cfaccf608d9de7d8786364b7a8d02910160405180910390a1600380547fffffffffffffffffffffffff0000000000000000000000000000000000000000166001600160a01b0392909216919091179055565b6000546001600160a01b031633146120f75760405162461bcd60e51b815260206004820152602e60248201527f4e6f756e7344414f3a3a5f73657450726f706f73616c5468726573686f6c644260448201527f50533a2061646d696e206f6e6c79000000000000000000000000000000000000606482015260840161081d565b6001811015801561210a57506103e88111155b61217c5760405162461bcd60e51b815260206004820152603b60248201527f4e6f756e7344414f3a3a5f73657450726f706f73616c5468726573686f6c643a60448201527f20696e76616c69642070726f706f73616c207468726573686f6c640000000000606482015260840161081d565b600680549082905560408051828152602081018490527ffc216faa269bf440fb06aa490693f409461bde9cdcb949c7b9f2cb79589e7a5891016108e7565b6000610da9600654600a60009054906101000a90046001600160a01b03166001600160a01b03166318160ddd6040518163ffffffff1660e01b8152600401602060405180830381865afa158015610d80573d6000803e3d6000fd5b6000546001600160a01b031633146122955760405162461bcd60e51b815260206004820152602660248201527f4e6f756e7344414f3a3a5f73657450656e64696e6741646d696e3a2061646d6960448201527f6e206f6e6c790000000000000000000000000000000000000000000000000000606482015260840161081d565b600180546001600160a01b038381167fffffffffffffffffffffffff000000000000000000000000000000000000000083168117909355604080519190921680825260208201939093527fca4f2f25d0898edd99413412fb94012f9e54ec8142f9b093e7720646a95b16a991016108e7565b6003546001600160a01b031633146123875760405162461bcd60e51b815260206004820152602560248201527f4e6f756e7344414f3a3a5f6275726e5665746f506f7765723a207665746f657260448201527f206f6e6c79000000000000000000000000000000000000000000000000000000606482015260840161081d565b6123916000611f76565b565b60006123c76040518060a0016040528060008152602001600081526020016000815260200160008152602001600081525090565b600a60009054906101000a90046001600160a01b03166001600160a01b03166318160ddd6040518163ffffffff1660e01b8152600401602060405180830381865afa15801561241a573d6000803e3d6000fd5b505050506040513d601f19601f8201168201806040525081019061243e9190614292565b80825260065461244d916131e2565b60208201819052600a546001600160a01b031663782d6fe1336124716001436142be565b6040517fffffffff0000000000000000000000000000000000000000000000000000000060e085901b1681526001600160a01b0390921660048301526024820152604401602060405180830381865afa1580156124d2573d6000803e3d6000fd5b505050506040513d601f19601f820116820180604052508101906124f691906142d1565b6bffffffffffffffffffffffff16116125775760405162461bcd60e51b815260206004820152603a60248201527f4e6f756e7344414f3a3a70726f706f73653a2070726f706f73657220766f746560448201527f732062656c6f772070726f706f73616c207468726573686f6c64000000000000606482015260840161081d565b85518751148015612589575084518751145b8015612596575083518751145b6126085760405162461bcd60e51b815260206004820152603f60248201527f4e6f756e7344414f3a3a70726f706f73653a2070726f706f73616c2066756e6360448201527f74696f6e20696e666f726d6174696f6e206172697479206d69736d6174636800606482015260840161081d565b865160000361267f5760405162461bcd60e51b815260206004820152602760248201527f4e6f756e7344414f3a3a70726f706f73653a206d7573742070726f766964652060448201527f616374696f6e7300000000000000000000000000000000000000000000000000606482015260840161081d565b600a875111156126f75760405162461bcd60e51b815260206004820152602360248201527f4e6f756e7344414f3a3a70726f706f73653a20746f6f206d616e79206163746960448201527f6f6e730000000000000000000000000000000000000000000000000000000000606482015260840161081d565b336000908152600c60205260409081902054908201819052156128815760006127238260400151611831565b9050600181600881111561273957612739613bc8565b036127d25760405162461bcd60e51b815260206004820152605360248201527f4e6f756e7344414f3a3a70726f706f73653a206f6e65206c6976652070726f7060448201527f6f73616c207065722070726f706f7365722c20666f756e6420616e20616c726560648201527f616479206163746976652070726f706f73616c00000000000000000000000000608482015260a40161081d565b60008160088111156127e6576127e6613bc8565b0361287f5760405162461bcd60e51b815260206004820152605460248201527f4e6f756e7344414f3a3a70726f706f73653a206f6e65206c6976652070726f7060448201527f6f73616c207065722070726f706f7365722c20666f756e6420616e20616c726560648201527f6164792070656e64696e672070726f706f73616c000000000000000000000000608482015260a40161081d565b505b60045461288e90436142ab565b606082018190526005546128a1916142ab565b6080820152600880549060006128b68361425a565b90915550506008546000818152600b602090815260409091209182556001820180547fffffffffffffffffffffffff000000000000000000000000000000000000000016331790558201516002820155600754825161291591906131e2565b600382015560006004820155875161293690600583019060208b0190613745565b50865161294c90600683019060208a01906137c2565b50855161296290600783019060208901906137fd565b508451612978906008830190602088019061384f565b506060820151600982019081556080830151600a83019081556000600b8401819055600c808501829055600d8501829055600e850180547fffffffffffffffffffffffffffffffffffffffffffffffffffffffffff000000169055845460018601546001600160a01b031683526020919091526040918290208190559254915490517f7d84a6263ae0d98d3329bd7b46bb4e8d6f98cd35a7adb45c274c8b7fd5ebd5e093612a3593909233928e928e928e928e9291908e90614354565b60405180910390a17f6af0134faa0f9290c1d686d55012aca80302d31d5c856e4bc7954f7613dc7f878160000154338a8a8a8a876009015488600a015489600201548a600301548e604051612a949b9a999897969594939291906143ea565b60405180910390a154979650505050505050565b6004612ab382611831565b6008811115612ac457612ac4613bc8565b14612b375760405162461bcd60e51b815260206004820152603f60248201527f4e6f756e7344414f3a3a71756575653a2070726f706f73616c2063616e206f6e60448201527f6c79206265207175657565642069662069742069732073756363656564656400606482015260840161081d565b6000818152600b6020908152604080832060095482517f6a42b8f800000000000000000000000000000000000000000000000000000000815292519194936001600160a01b0390911692636a42b8f892600480830193928290030181865afa158015612ba7573d6000803e3d6000fd5b505050506040513d601f19601f82011682018060405250810190612bcb9190614292565b612bd590426142ab565b905060005b6005830154811015612d9f57612d8d836005018281548110612bfe57612bfe6140c7565b6000918252602090912001546006850180546001600160a01b039092169184908110612c2c57612c2c6140c7565b9060005260206000200154856007018481548110612c4c57612c4c6140c7565b906000526020600020018054612c61906140f6565b80601f0160208091040260200160405190810160405280929190818152602001828054612c8d906140f6565b8015612cda5780601f10612caf57610100808354040283529160200191612cda565b820191906000526020600020905b815481529060010190602001808311612cbd57829003601f168201915b5050505050866008018581548110612cf457612cf46140c7565b906000526020600020018054612d09906140f6565b80601f0160208091040260200160405190810160405280929190818152602001828054612d35906140f6565b8015612d825780601f10612d5757610100808354040283529160200191612d82565b820191906000526020600020905b815481529060010190602001808311612d6557829003601f168201915b50505050508661356d565b80612d978161425a565b915050612bda565b506004820181905560408051848152602081018390527f9a2e42fd6722813d69113e7d0079d3d940171428df7373df9c7f7617cfda2892910160405180910390a1505050565b604080516060808201835260008083526020808401829052928401819052858152600b83528381206001600160a01b0386168252600f018352839020835191820184525460ff8082161515835261010082041692820192909252620100009091046bffffffffffffffffffffffff16918101919091525b92915050565b6001546001600160a01b031633148015612e7b57503315155b612eed5760405162461bcd60e51b815260206004820152602a60248201527f4e6f756e7344414f3a3a5f61636365707441646d696e3a2070656e64696e672060448201527f61646d696e206f6e6c7900000000000000000000000000000000000000000000606482015260840161081d565b60008054600180546001600160a01b038082167fffffffffffffffffffffffff000000000000000000000000000000000000000080861682179096559490911690915560408051919092168082526020820184905292917ff9ffabca9c8276e99321725bcb43fb076a6c66a54b7f21c4e8146d8519b417dc910160405180910390a1600154604080516001600160a01b03808516825290921660208301527fca4f2f25d0898edd99413412fb94012f9e54ec8142f9b093e7720646a95b16a991016108e7565b6005612fbe82611831565b6008811115612fcf57612fcf613bc8565b14613044576040805162461bcd60e51b81526020600482015260248101919091527f4e6f756e7344414f3a3a657865637574653a2070726f706f73616c2063616e2060448201527f6f6e6c7920626520657865637574656420696620697420697320717565756564606482015260840161081d565b6000818152600b60205260408120600e810180547fffffffffffffffffffffffffffffffffffffffffffffffffffffffffff00ffff1662010000179055905b60058201548110156131b1576009546005830180546001600160a01b0390921691630825f38f9190849081106130bb576130bb6140c7565b6000918252602090912001546006850180546001600160a01b0390921691859081106130e9576130e96140c7565b9060005260206000200154856007018581548110613109576131096140c7565b90600052602060002001866008018681548110613128576131286140c7565b9060005260206000200187600401546040518663ffffffff1660e01b81526004016131579594939291906141de565b6000604051808303816000875af1158015613176573d6000803e3d6000fd5b505050506040513d6000823e601f3d908101601f1916820160405261319e9190810190614490565b50806131a98161425a565b915050613083565b506040518281527f712ae1383f79ac853f8d882153778e0260ef8f03b504e2866e0593e04d2b291f906020016108e7565b60006127106131f18484614507565b6131fb919061451e565b9392505050565b6000600161320f84611831565b600881111561322057613220613bc8565b146132935760405162461bcd60e51b815260206004820152602c60248201527f4e6f756e7344414f3a3a63617374566f7465496e7465726e616c3a20766f746960448201527f6e6720697320636c6f7365640000000000000000000000000000000000000000606482015260840161081d565b60028260ff16111561330d5760405162461bcd60e51b815260206004820152602d60248201527f4e6f756e7344414f3a3a63617374566f7465496e7465726e616c3a20696e766160448201527f6c696420766f7465207479706500000000000000000000000000000000000000606482015260840161081d565b6000838152600b602090815260408083206001600160a01b0388168452600f8101909252909120805460ff16156133ac5760405162461bcd60e51b815260206004820152602f60248201527f4e6f756e7344414f3a3a63617374566f7465496e7465726e616c3a20766f746560448201527f7220616c726561647920766f7465640000000000000000000000000000000000606482015260840161081d565b600a5460045460098401546000926001600160a01b03169163782d6fe1918a916133d5916142be565b6040517fffffffff0000000000000000000000000000000000000000000000000000000060e085901b1681526001600160a01b0390921660048301526024820152604401602060405180830381865afa158015613436573d6000803e3d6000fd5b505050506040513d601f19601f8201168201806040525081019061345a91906142d1565b90508460ff1660000361348f57806bffffffffffffffffffffffff1683600c015461348591906142ab565b600c8401556134f1565b8460ff166001036134c257806bffffffffffffffffffffffff1683600b01546134b891906142ab565b600b8401556134f1565b8460ff166002036134f157806bffffffffffffffffffffffff1683600d01546134eb91906142ab565b600d8401555b81546bffffffffffffffffffffffff821662010000027fffffffffffffffffffffffffffffffffffff000000000000000000000000ffff60ff8816610100027fffffffffffffffffffffffffffffffffffffffffffffffffffffffffffff00009093169290921760011791909116179091559150509392505050565b6009546040516001600160a01b039091169063f2b065379061359b9088908890889088908890602001614559565b604051602081830303815290604052805190602001206040518263ffffffff1660e01b81526004016135cf91815260200190565b602060405180830381865afa1580156135ec573d6000803e3d6000fd5b505050506040513d601f19601f820116820180604052508101906136109190614593565b156136a95760405162461bcd60e51b815260206004820152605060248201527f4e6f756e7344414f3a3a71756575654f72526576657274496e7465726e616c3a60448201527f206964656e746963616c2070726f706f73616c20616374696f6e20616c72656160648201527f6479207175657565642061742065746100000000000000000000000000000000608482015260a40161081d565b6009546040517f3a66f9010000000000000000000000000000000000000000000000000000000081526001600160a01b0390911690633a66f901906136fa9088908890889088908890600401614559565b6020604051808303816000875af1158015613719573d6000803e3d6000fd5b505050506040513d601f19601f8201168201806040525081019061373d9190614292565b505050505050565b8280548282559060005260206000209081019282156137b2579160200282015b828111156137b257825182547fffffffffffffffffffffffff0000000000000000000000000000000000000000166001600160a01b03909116178255602090920191600190910190613765565b506137be9291506138a1565b5090565b8280548282559060005260206000209081019282156137b2579160200282015b828111156137b25782518255916020019190600101906137e2565b828054828255906000526020600020908101928215613843579160200282015b8281111561384357825182906138339082614600565b509160200191906001019061381d565b506137be9291506138b6565b828054828255906000526020600020908101928215613895579160200282015b8281111561389557825182906138859082614600565b509160200191906001019061386f565b506137be9291506138d3565b5b808211156137be57600081556001016138a2565b808211156137be5760006138ca82826138f0565b506001016138b6565b808211156137be5760006138e782826138f0565b506001016138d3565b5080546138fc906140f6565b6000825580601f1061390c575050565b601f01602090049060005260206000209081019061392a91906138a1565b50565b60006020828403121561393f57600080fd5b5035919050565b60005b83811015613961578181015183820152602001613949565b50506000910152565b60008151808452613982816020860160208601613946565b601f01601f19169290920160200192915050565b6020815260006131fb602083018461396a565b80356001600160a01b03811681146139c057600080fd5b919050565b6000602082840312156139d757600080fd5b6131fb826139a9565b600080600080600080600060e0888a0312156139fb57600080fd5b613a04886139a9565b9650613a12602089016139a9565b9550613a20604089016139a9565b969995985095966060810135965060808101359560a0820135955060c0909101359350915050565b600081518084526020808501945080840160005b83811015613a815781516001600160a01b031687529582019590820190600101613a5c565b509495945050505050565b600081518084526020808501945080840160005b83811015613a8157815187529582019590820190600101613aa0565b600081518084526020808501808196508360051b8101915082860160005b85811015613b04578284038952613af284835161396a565b98850198935090840190600101613ada565b5091979650505050505050565b608081526000613b246080830187613a48565b8281036020840152613b368187613a8c565b90508281036040840152613b4a8186613abc565b90508281036060840152613b5e8185613abc565b979650505050505050565b803560ff811681146139c057600080fd5b600080600080600060a08688031215613b9257600080fd5b85359450613ba260208701613b69565b9350613bb060408701613b69565b94979396509394606081013594506080013592915050565b7f4e487b7100000000000000000000000000000000000000000000000000000000600052602160045260246000fd5b6020810160098310613c32577f4e487b7100000000000000000000000000000000000000000000000000000000600052602160045260246000fd5b91905290565b60008060408385031215613c4b57600080fd5b82359150613c5b60208401613b69565b90509250929050565b60008060008060608587031215613c7a57600080fd5b84359350613c8a60208601613b69565b9250604085013567ffffffffffffffff80821115613ca757600080fd5b818701915087601f830112613cbb57600080fd5b813581811115613cca57600080fd5b886020828501011115613cdc57600080fd5b95989497505060200194505050565b7f4e487b7100000000000000000000000000000000000000000000000000000000600052604160045260246000fd5b604051601f8201601f1916810167ffffffffffffffff81118282101715613d4357613d43613ceb565b604052919050565b600067ffffffffffffffff821115613d6557613d65613ceb565b5060051b60200190565b600082601f830112613d8057600080fd5b81356020613d95613d9083613d4b565b613d1a565b82815260059290921b84018101918181019086841115613db457600080fd5b8286015b84811015613dd657613dc9816139a9565b8352918301918301613db8565b509695505050505050565b600082601f830112613df257600080fd5b81356020613e02613d9083613d4b565b82815260059290921b84018101918181019086841115613e2157600080fd5b8286015b84811015613dd65780358352918301918301613e25565b600067ffffffffffffffff821115613e5657613e56613ceb565b50601f01601f191660200190565b6000613e72613d9084613e3c565b9050828152838383011115613e8657600080fd5b828260208301376000602084830101529392505050565b600082601f830112613eae57600080fd5b6131fb83833560208501613e64565b600082601f830112613ece57600080fd5b81356020613ede613d9083613d4b565b82815260059290921b84018101918181019086841115613efd57600080fd5b8286015b84811015613dd657803567ffffffffffffffff811115613f215760008081fd5b613f2f8986838b0101613e9d565b845250918301918301613f01565b600082601f830112613f4e57600080fd5b81356020613f5e613d9083613d4b565b82815260059290921b84018101918181019086841115613f7d57600080fd5b8286015b84811015613dd657803567ffffffffffffffff811115613fa15760008081fd5b8701603f81018913613fb35760008081fd5b613fc4898683013560408401613e64565b845250918301918301613f81565b600080600080600060a08688031215613fea57600080fd5b853567ffffffffffffffff8082111561400257600080fd5b61400e89838a01613d6f565b9650602088013591508082111561402457600080fd5b61403089838a01613de1565b9550604088013591508082111561404657600080fd5b61405289838a01613ebd565b9450606088013591508082111561406857600080fd5b61407489838a01613f3d565b9350608088013591508082111561408a57600080fd5b5061409788828901613e9d565b9150509295509295909350565b600080604083850312156140b757600080fd5b82359150613c5b602084016139a9565b7f4e487b7100000000000000000000000000000000000000000000000000000000600052603260045260246000fd5b600181811c9082168061410a57607f821691505b602082108103611a0c577f4e487b7100000000000000000000000000000000000000000000000000000000600052602260045260246000fd5b60008154614150816140f6565b80855260206001838116801561416d57600181146141a5576141d3565b7fffffffffffffffffffffffffffffffffffffffffffffffffffffffffffffff008516838901528284151560051b89010195506141d3565b866000528260002060005b858110156141cb5781548a82018601529083019084016141b0565b890184019650505b505050505092915050565b6001600160a01b038616815284602082015260a06040820152600061420660a0830186614143565b82810360608401526142188186614143565b9150508260808301529695505050505050565b7f4e487b7100000000000000000000000000000000000000000000000000000000600052601160045260246000fd5b60007fffffffffffffffffffffffffffffffffffffffffffffffffffffffffffffffff820361428b5761428b61422b565b5060010190565b6000602082840312156142a457600080fd5b5051919050565b80820180821115612e5c57612e5c61422b565b81810381811115612e5c57612e5c61422b565b6000602082840312156142e357600080fd5b81516bffffffffffffffffffffffff811681146131fb57600080fd5b85815260ff851660208201526bffffffffffffffffffffffff8416604082015260806060820152816080820152818360a0830137600081830160a090810191909152601f909201601f19160101949350505050565b60006101208b83526001600160a01b038b16602084015280604084015261437d8184018b613a48565b90508281036060840152614391818a613a8c565b905082810360808401526143a58189613abc565b905082810360a08401526143b98188613abc565b90508560c08401528460e08401528281036101008401526143da818561396a565b9c9b505050505050505050505050565b60006101608d83526001600160a01b038d1660208401528060408401526144138184018d613a48565b90508281036060840152614427818c613a8c565b9050828103608084015261443b818b613abc565b905082810360a084015261444f818a613abc565b90508760c08401528660e0840152856101008401528461012084015282810361014084015261447e818561396a565b9e9d5050505050505050505050505050565b6000602082840312156144a257600080fd5b815167ffffffffffffffff8111156144b957600080fd5b8201601f810184136144ca57600080fd5b80516144d8613d9082613e3c565b8181528560208385010111156144ed57600080fd5b6144fe826020830160208601613946565b95945050505050565b8082028115828204841417612e5c57612e5c61422b565b600082614554577f4e487b7100000000000000000000000000000000000000000000000000000000600052601260045260246000fd5b500490565b6001600160a01b038616815284602082015260a06040820152600061458160a083018661396a565b8281036060840152614218818661396a565b6000602082840312156145a557600080fd5b815180151581146131fb57600080fd5b601f8211156145fb57600081815260208120601f850160051c810160208610156145dc5750805b601f850160051c820191505b8181101561373d578281556001016145e8565b505050565b815167ffffffffffffffff81111561461a5761461a613ceb565b61462e8161462884546140f6565b846145b5565b602080601f831160018114614681576000841561464b5750858301515b7fffffffffffffffffffffffffffffffffffffffffffffffffffffffffffffffff600386901b1c1916600185901b17855561373d565b600085815260208120601f198616915b828110156146b057888601518255948401946001909101908401614691565b50858210156146ec57878501517fffffffffffffffffffffffffffffffffffffffffffffffffffffffffffffffff600388901b60f8161c191681555b5050505050600190811b0190555056fea2646970667358221220203e28b234aac0927da080ca8ba32cfec997f30027e4ba74d3b7e73c8e18105264736f6c63430008110033",
    "linkReferences": {},
    "deployedLinkReferences": {}
}